:100000000C9434000C943E000C943E000C943E0082
:100010000C943E000C943E000C943E000C943E0068
:100020000C943E000C943E000C943E000C943E0058
:100030000C943E000C943E000C943E000C943E0048
:100040000C943E000C943E000C943E000C943E0038
:100050000C943E000C943E000C943E000C943E0028
:100060000C943E000C943E0011241FBECFEFD8E04C
:10007000DEBFCDBF0E9440000C9499000C9400009C
:10008000219A229A239A2FEF83ED90E3215080400A
:100090009040E1F700C00000299A2FEF83ED90E334
:1000A000215080409040E1F700C0000029982A9A32
:1000B0002FEF83ED90E3215080409040E1F700C0A6
:1000C00000002A982B9A2FEF83ED90E32150804077
:1000D0009040E1F700C000002B982FEF83ED90E3F4
:1000E000215080409040E1F700C0000027982698FA
:1000F0005F9A5E9A219A229A4E9B10C04F9B0EC027
:10010000299A2FEF8DE399E4215080409040E1F748
:1001100000C0000029982A982B98EECF4F9B02C070
:100120002A9AEECF4E9B02C02B9AEACF299A2B9A9D
:06013000F1CFF894FFCFAF
:00000001FF
